:020000040800F2
:10000000002000205D0E0008A90E0008A90E0008BF
:1000100000000000000000000000000000000000E0
:10002000000000000000000000000000A90E000811
:100030000000000000000000A90E0008DD06000816
:10004000A90E0008A90E0008A90E0008A90E0008B4
:10005000A90E0008A90E0008A90E0008A90E0008A4
:10006000A90E0008A90E0008A90E0008A90E000894
:10007000A90E0008A90E0008A90E0008A90E000884
:10008000A90E0008A90E000800000000A90E000833
:10009000A90E0008A90E0008A90E0008A90E000864
:1000A000A90E0008A90E0008A90E0008A90E000854
:1000B000A90E000800000000A90E000800000000C2
:1000C0005FF808F180B582B000AF78600A1CFB1CB5
:1000D0001A70FB1C1B78002B06D0084B074A51698D
:1000E0007A680A435A6106E0044B044A5269796807
:1000F000C9430A405A61BD4602B080BD00100240AB
:1001000080B582B000AF78600A1CFB1C1A70FB1C23
:100110001B78002B06D0084B074A91697A680A437E
:100120009A6106E0044B044A92697968C9430A401F
:100130009A61BD4602B080BD0010024080B582B019
:1001400000AF78600A1CFB1C1A70FB1C1B78002B8C
:1001500006D0084B074AD1697A680A43DA6106E09B
:10016000044B044AD2697968C9430A40DA61BD4642
:1001700002B080BD0010024080B500AF614B1B781B
:10018000012B5FD15F4B00221A7080239B02181C49
:100190000121FFF797FF80235B01181C0121FFF766
:1001A000AFFF594B03221A60574B01221A71564B6D
:1001B00000229A71544B01225A719023DA05524B56
:1001C000101C191C01F076FF4F4BA0221A604E4BF9
:1001D00002221A719023DA054B4B101C191C01F0F6
:1001E00069FF9023DB05181C0521002202F02CF882
:1001F0009023DB05181C0721002202F025F8434B51
:1002000020229A81414B00221A81404B0022DA8041
:100210003E4BE022D2009A803C4B0022DA813B4BDD
:10022000822252005A80394B802292005A81384AE9
:10023000364B101C191C00F039FE354B181C0121DF
:1002400000F0B6FE9023DB05181C032101F0D2FF5D
:10025000322000F04FFAE2200021012200F05AF88B
:10026000322000F047FAE2200021012200F052F88B
:10027000142000F03FFAA0200021012200F04AF8EB
:10028000C8200021012200F045F82320002101228E
:1002900000F040F881200021012200F03BF82020EE
:1002A0000021012200F036F8FA200021012200F09E
:1002B00031F893200021012200F02CF8A220002127
:1002C000012200F027F8EE200021012200F022F8A0
:1002D00015200021012200F01DF8A6200021012296
:1002E00000F018F82F200021012200F013F8AF20B1
:1002F0000021012200F00EF800F0B4FE00F05AF8E0
:10030000BD4680BD00000020640400205004002091
:100310000030014090B583B000AF041C081C111CD4
:10032000FB1D221C1A70BB1D021C1A707B1D0A1CAF
:100330001A709023DA05BB1D1B78101C01211A1CB2
:1003400001F066FF7B1D1B78002B05D09023DB0599
:10035000181C022101F04EFF154AFB1D1B78101CD2
:10036000191C00F045FEC046114B181C802100F0FE
:1003700055FE031E012BF7D0C0460D4B181C022161
:1003800000F04CFE031EF8D09023DB05181CA021C2
:1003900001F030FF7B1D1B78002B05D09023DB057F
:1003A000181C022101F018FFBD4603B090BDC046E5
:1003B0000030014080B582B000AFB02000210122A2
:1003C000FFF7A8FF002000210122FFF7A3FF102064
:1003D00000210122FFF79EFF9023DB05181C02215C
:1003E00001F008FFBB1D00221A800DE0BB1D1B8819
:1003F0000C4AD35C181C01210022FFF78BFFBB1DA8
:100400001A88BB1D01321A80BB1D1B88064A934205
:10041000ECD99023DB05181C022101F0DDFEBD465E
:1004200002B080BD6C0400201F040000B0B582B093
:1004300000AF021C3960FB1D1A70FB1D1B787F2B5F
:100440002FD92D4CFB1D1B781A1C0F231340083B82
:100450009908294AFB1D1B78181C0F230340083BF1
:100460009B0806339B00D3185B68FA1D1278101C9A
:1004700003220240D200101CFF228240D2431A40C5
:100480003B689B01FF200340F81D0078051C0320FA
:100490002840C00083401A438B1D9B00E3185A601C
:1004A00026E0164CFB1D1B785BB29B081349FA1D16
:1004B000127852B29208C03292005258F91D09784F
:1004C000081C03210140C900081CFF218140C943C9
:1004D00011403A689201FF200240F81D0078051C87
:1004E00003202840C00082400A43C0339B001A51B9
:1004F000BD4602B0B0BDC04600ED00E000E100E046
:1005000080B582B000AF78607B680E4A934201D913
:10051000012312E00C4B7A681202120A013A5A6067
:1005200001235B42181C0321FFF780FF064B0022CA
:100530009A60054B07221A600023181CBD4602B0C2
:1005400080BDC046FFFFFF0010E000E090B587B01F
:1005500002AF021CFB1D1A70C0462D4A80231B02ED
:10056000101C191C01F0BEFC031E012BF5D0284AFB
:1005700080239B010093101C3C210122002301F0E9
:1005800063FCC046224B181C022101F0ABFC031E89
:10059000F8D01F4AFB1D1B78101C191C01F088FCA9
:1005A000C0461B4B181C402101F09CFC031EF8D0D8
:1005B000174A80239C0490239B010093101C3C212C
:1005C0000122231C01F040FCC046114B181C0421E1
:1005D00001F088FC031EF8D00F23FC180C4B181CEC
:1005E00001F074FC031C2370C046094B181C202129
:1005F00001F078FC031EF8D0054B181C202101F0F7
:1006000097FC0F23FB181B78181CBD4605B090BD46
:100610000058004090B585B002AF021CFB1D1A7057
:10062000BB1D0A1C1A70C0462B4A80231B02101CDB
:10063000191C01F057FC031E012BF5D0264A80231C
:100640005C0480239B010093101C3C210122231C8D
:1006500001F0FAFBC046204B181C022101F042FCBD
:10066000031EF8D01C4AFB1D1B78101C191C01F03E
:100670001FFCC046184B181C802101F033FC031EE0
:10068000F8D0154A80239C0400230093101C3C21C1
:100690000122231C01F0D8FBC0460F4B181C02217D
:1006A00001F020FC031EF8D00B4ABB1D1B78101C68
:1006B000191C01F0FDFBC046074B181C202101F05E
:1006C00011FC031EF8D0044B181C202101F030FC53
:1006D000BD4603B090BDC0460058004080B500AF95
:1006E000034B1B685A1C024B1A60BD4680BDC046B6
:1006F0004C04002080B584B000AF7860064B1B68C6
:10070000FB60C046044B1A68FB68D21A7B689A42A9
:10071000F8D3BD4604B080BD4C04002090B58DB028
:1007200002AFEC4B1B68181CFA23990001F0D0FFB4
:10073000031C181CFFF7E4FE8023DB02181C0121B8
:10074000FFF7C0FC8023DB03181C0121FFF7F6FC38
:10075000E14BC02212011A60DF4B02221A71DE4BFC
:1007600000229A71DC4B0122DA71DB4B00225A71B4
:10077000DA4AD94B101C191C01F09CFCD74B181CF1
:100780000A21012201F060FDD44B181C0B2101222B
:1007900001F05AFDD24B00225A61D14B00229A61DE
:1007A000CF4B00225A60CE4B00229A60CC4B0022E5
:1007B000DA60CB4B01221A61C94BCA4A1A60CA4A95
:1007C000C74B101C191C01F0BDFAC74B181C0121A6
:1007D00001F01EFBFFF7D0FC00233B620023FB610E
:1007E0000023BB610E23FB18C04A1A801223FB189A
:1007F0000E22BA1812881A801623FB181222BA1871
:1008000012881A800C23FB18B94A1A801023FB188F
:100810000C22BA1812881A801423FB181022BA1856
:1008200012881A803B1C00221A8000229A70002035
:100830001821FFF7EFFE01200021FFF7EBFE022059
:100840000021FFF7E7FE0320FFF780FE031C1B02D9
:100850009CB20420FFF77AFE031C9AB20A23FB180D
:10086000211C0A431A800720FFF770FE031C1B029D
:100870009CB20820FFF76AFE031C9AB20823FB18FB
:10088000211C0A431A800520FFF760FE031C1B028F
:100890009CB20620FFF75AFE031C9AB2BB1D211C16
:1008A0000A431A800A23FA181623FB180021525E05
:1008B00000215B5E9A4205DD1623FB180A22BA1856
:1008C00012881A800A23FA181423FB180021525E9A
:1008D00000215B5E9A4205DA1423FB180A22BA183B
:1008E00012881A800823FA181223FB180021525E7E
:1008F00000215B5E9A4205DD1223FB180822BA181C
:1009000012881A800823FA181023FB180021525E5F
:1009100000215B5E9A4205DA1023FB180822BA1800
:1009200012881A80BA1D0E23FB180021525E002186
:100930005B5E9A4204DD0E23FB18BA1D12881A80F2
:10094000BA1D0C23FB180021525E00215B5E9A4207
:1009500004DA0C23FB18BA1D12881A8000F082FBFF
:10096000644A00230093101C00210022002300F0A1
:10097000BBFC0A23FB1800229A5E0023009300238D
:100980000193101C0F210022002300F0F3FC16231A
:10099000FB1800229A5E0023009300230193101C91
:1009A00028210022002300F0E5FC1423FB1800227C
:1009B0009A5E0023009300230193101C4B21002218
:1009C000002300F0D7FC4C4A00230093101C0021A8
:1009D0000822002300F088FC0823FB1800229A5EFE
:1009E0000023009300230193101C0F2108220023F1
:1009F00000F0C0FC1223FB1800229A5E0023009333
:100A000000230193101C28210822002300F0B2FCCF
:100A10001023FB1800229A5E002300930023019309
:100A2000101C4B210822002300F0A4FC334A0023B1
:100A30000093101C00211022002300F055FCBB1D68
:100A400000229A5E0023009300230193101C0F21C3
:100A50001022002300F08EFC0E23FB1800229A5E69
:100A60000023009300230193101C2821102200234F
:100A700000F080FC0C23FB1800229A5E00230093F8
:100A800000230193101C4B211022002300F072FC64
:100A90001623FA181423FB180021525E00215B5E16
:100AA0009A4200D19DE01223FA181023FB1800216E
:100AB000525E00215B5E9A4200D192E00E23FA184A
:100AC0000C23FB180021525E00215B5E9A4200D18C
:100AD00087E015E0040000206404002000040048C2
:100AE0008C0800200A021000005800400180FFFF1F
:100AF000FF7F0000984700089C470008A0470008B7
:100B00000A23FB1800229A5E1423FB1800215B5E67
:100B1000D31A181C02F0D6FD041C1623FB18002261
:100B20009A5E1423FB1800215B5ED31A181C02F096
:100B3000C9FD031C201C191C02F002F9031C181C1F
:100B4000FC21890502F020FC031C3B620823FB18F2
:100B500000229A5E1023FB1800215B5ED31A181C3A
:100B600002F0B0FD041C1223FB1800229A5E102331
:100B7000FB1800215B5ED31A181C02F0A3FD031CB6
:100B8000201C191C02F0DCF8031C181CFC21890530
:100B900002F0FAFB031CFB61BB1D00229A5E0C23D2
:100BA000FB1800215B5ED31A181C02F08BFD041C9D
:100BB0000E23FB1800229A5E0C23FB1800215B5EBB
:100BC000D31A181C02F07EFD031C201C191C02F015
:100BD000B7F8031C181CFC21890502F0D5FB031C87
:100BE000BB61F869002101F01BFF031E2DD0386A9C
:100BF000F96902F0A5F8031C181C01F075FB031C31
:100C0000181C8B4902F08EFA031C181C03F076FCAA
:100C1000031C0C1C181C211C864A874B02F09AFDF1
:100C2000031C0C1C002085491A1C231C03F0B6F879
:100C3000031C0C1C1A1C231C26217C18101C191CBC
:100C400003F026FC031C238048E0F869002101F032
:100C5000D3FE031E2DD0386AF96902F071F8031C27
:100C6000181C01F041FB031C181C714902F05AFAD0
:100C7000031C181C03F042FC031C0C1C181C211C38
:100C80006C4A6D4B02F066FD031C0C1C00206C4985
:100C90001A1C231C03F082F8031C0C1C1A1C231CB6
:100CA00026217C18101C191C03F0F2FB031C238066
:100CB00014E0F869002101F099FE031E0AD0386A99
:100CC000002101F099FE031E04D02623FB18B42254
:100CD0001A8003E02623FB1800221A80594A0023B9
:100CE0000093101C00211822002300F0FDFA021CC2
:100CF0007B1D1A707B1D1B789BB2396A1AB20023C8
:100D0000009300230193081C111C1822032300F0F8
:100D10009BFE4D4A00230093101C0021202200233B
:100D200000F0E2FA021C7B1D1A707B1D1B789BB23F
:100D3000F9691AB20023009300230193081C111CC7
:100D40002022032300F080FE404A00230093101C61
:100D500000212822002300F0C7FA021C7B1D1A7014
:100D60007B1D1B789BB2B9691AB200230093002344
:100D70000193081C111C2822032300F065FE344A4D
:100D800000230093101C00213022002300F0ACFA55
:100D9000021C7B1D1A70386A396A02F0C3F9031C01
:100DA0001C1CF869F96902F0BDF9031C201C191C10
:100DB00001F04AFE031C181C01F0B6FB031C181CB2
:100DC000244902F0AFF9031C181C02F05BFC011C63
:100DD0007B1D1B789BB21AB2002300930023019362
:100DE000081C111C3022002300F0C4FA1A4A002308
:100DF0000093101C00213822002300F075FA021C19
:100E00007B1D1A702623FB180021595E7B1D1B7861
:100E10009BB21AB20023009300230193081C111CFB
:100E20003822002300F0A6FAFFF7C4FA0BE5C0460B
:100E300000003443182D4454FB21094000805640E3
:100E400000E07040A4470008AC470008B447000821
:100E5000BC47000800007A44C44700080C48854697
:100E6000002103E00B4B5B58435004310A480B4B05
:100E700042189A42F6D30A4A02E000231360043271
:100E8000084B9A42F9D301F05FF8FFF747FCFEE701
:100E900000200020F84B0008000000204C04002037
:100EA0004C040020A8080020FEE7000080B584B0B4
:100EB00000AF786039600E23FB1800221A800E23E1
:100EC000FB187A6812881A800E23FB180E22BA18B3
:100ED0001188C12292010A401A803B681A883B6837
:100EE000DB8913439AB23B68DB8813439AB23B68B1
:100EF0001B8913439AB23B685B8913439AB23B68E0
:100F00009B89134399B20E23FB180E22BA1812883C
:100F10000A431A807B680E22BA1812881A800E23A0
:100F2000FB187A6892881A800E23FB180E22BA18D2
:100F300012881D490A401A803B6899880E23FB18C5
:100F40000E22BA1812880A431A807B680E22BA1839
:100F500012889A803B681A8A7B681A820E23FB18D3
:100F60007A6812881A800E23FB180E22BA1812888B
:100F700004218A431A803B6859880E23FB180E22ED
:100F8000BA1812880A431A807B680E22BA1812888F
:100F90001A807B689B8B9BB2044A13409AB27B6891
:100FA0009A83BD4604B080BDFFF0FFFFFFF7FFFF4F
:100FB00080B582B000AF78600A1CFB1C1A70FB1C65
:100FC0001B78002B08D07B681B889BB24022134300
:100FD0009AB27B681A8007E07B681B889BB240222C
:100FE00093439AB27B681A80BD4602B080BDC0466A
:100FF00080B584B000AF78600A1CFB1C1A70002317
:10100000FB607B68FB60FB680C33FB60FB68FA1CD1
:1010100012781A70BD4604B080BDC04680B584B059
:1010200000AF78600A1CBB1C1A800F23FB1800223B
:101030001A707B681B899BB2BA1C128813409BB242
:10104000002B04D00F23FB1801221A7003E00F239A
:10105000FB1800221A700F23FB181B78181CBD46C2
:1010600004B080BD80B500AF044A8423DB00101CAF
:1010700000211A1C03F04AFBBD4680BD6C04002011
:1010800090B585B000AF041C081C111CBB1D221CB0
:101090001A803B1D021C1A80FB1C0A1C1A70BB1D07
:1010A00000229B5E832B0EDCBB1D00229B5E002B6F
:1010B00009DB3B1D00229B5E3F2B04DC3B1D002215
:1010C0009B5E002B01DA01235CE03B1D00229B5E4E
:1010D000DB109BB29BB2842253439AB2BB1D1B8888
:1010E000D3189AB20C23FB181A800C23FB18002289
:1010F0009A5E0F23FB1825498A5C1A70FB1C1B782B
:10110000002B19D13B1D00229B5E214A134004D5C0
:10111000013B08225242134301339BB21BB201220E
:101120009A40131CDAB20F23FB181B781343DAB270
:101130000F23FB181A701BE03B1D00229B5E144A14
:10114000134004D5013B08225242134301339BB2A2
:101150001BB201229A40131CDBB2DB43D9B20F232E
:10116000FB181A780B1C1340DAB20F23FB181A7005
:101170000C23FB1800229B5E044A0F217918097882
:10118000D1540023181CBD4605B090BD6C0400204E
:1011900007000080B0B584B000AF051C0C1C101C0B
:1011A000191CBB1D2A1C1A803B1D221C1A80BB1C4B
:1011B000021C1A807B1C0A1C1A70BB1DBA1D1288E7
:1011C000203A1A80BA1DBB1D1B88191C8900CB1838
:1011D00013800E23FB1800221A8075E00E23FB18E3
:1011E0001B88052B0BD8BB1D1A880E23FB181B88E8
:1011F000D3183C4AD25C0A23FB181A8003E00A2366
:10120000FB1800221A800C23FB1800221A804FE0E2
:101210000A23FB181A880C23FB181B881A41131C7D
:10122000012213401FD03B1D1A880E23FB181B8878
:10123000D3189BB298B2BB1C1A880C23FB181B88CE
:10124000D3189BB299B22023FB181B78013B5A425A
:101250005341DBB21C1C02B20BB2101C191C221C25
:10126000FFF70EFF1DE03B1D1A880E23FB181B889D
:10127000D3189BB298B2BB1C1A880C23FB181B888E
:10128000D3189BB299B22023FB181B785A425341C2
:10129000DBB21C1C02B20BB2101C191C221CFFF783
:1012A000EFFE0C23FB181A880C23FB1801321A805E
:1012B0000C23FB181B88072BAAD90E23FB181A88AE
:1012C0000E23FB1801321A800E23FB181B88042BF7
:1012D00000D883E73B1D00229B5E0533181CBD46EA
:1012E00004B0B0BDCC47000890B589B002AFF8603B
:1012F0000C1C101C191C0A23FB18221C1A80082322
:10130000FB18021C1A80FB1D0A1C1A701623FB18FE
:101310000A22BA1812881A801AE0FB681B7898B261
:101320001623FB180021595E0823FB1800229A5E41
:10133000FB1D1C782823FB181B780093231CFFF748
:1013400029FF021C1623FB181A80FB680133FB607F
:10135000FB681B78002B05D01623FB1800229B5E30
:10136000832BDADD1623FB1800229B5E181CBD467A
:1013700007B090BD90B58BB002AFF8600C1C101C8C
:10138000191C0A23FB18221C1A800823FB18021CB4
:101390001A80FB1D0A1C1A701F23FB1800221A70EA
:1013A0001423FB18181C0021092203F0AFF90A23AB
:1013B000FB1800229B5E002B02DA02235B4230E323
:1013C000FB68002B07DAFB685B42FB601E23FB18FF
:1013D00001221A7006E0FB68002B03DD1E23FB18B8
:1013E00000221A70FB68092B0BDCFB68DBB2303380
:1013F000DAB21423FB181A701F23FB1801221A708B
:10140000FAE2FB68632B1CDCFB68181C0A2101F064
:10141000EFF9031CDBB23033DAB21423FB181A7075
:10142000FB68181C0A2101F0C9FA0B1CDBB230332F
:10143000DAB21423FB185A701F23FB1802221A7009
:10144000DAE2FB68D34A93422DDCFB68181C642166
:1014500001F0CEF9031CDBB23033DAB21423FB18EF
:101460001A70FB68181C0A2101F0C2F9031C181C31
:101470000A2101F0A3FA0B1CDBB23033DAB21423D9
:10148000FB185A70FB68181C0A2101F097FA0B1C14
:10149000DBB23033DAB21423FB189A701F23FB1827
:1014A00003221A70A8E2FB68BB4A93423FDCFB6848
:1014B000181CFA23990001F09BF9031CDBB23033AE
:1014C000DAB21423FB181A70FB68181C642101F0AF
:1014D0008FF9031C181C0A2101F070FA0B1CDBB2F7
:1014E0003033DAB21423FB185A70FB68181C0A2137
:1014F00001F07EF9031C181C0A2101F05FFA0B1C95
:10150000DBB23033DAB21423FB189A70FB68181C74
:101510000A2101F053FA0B1CDBB23033DAB2142388
:10152000FB18DA701F23FB1804221A7064E2FB68B0
:101530009A4A934250DCFB68181C994901F058F90B
:10154000031CDBB23033DAB21423FB181A70FB68C9
:10155000181CFA23990001F04BF9031C181C0A21EE
:1015600001F02CFA0B1CDBB23033DAB21423FB1877
:101570005A70FB68181C642101F03AF9031C181C0E
:101580000A2101F01BFA0B1CDBB23033DAB2142350
:10159000FB189A70FB68181C0A2101F029F9031C3A
:1015A000181C0A2101F00AFA0B1CDBB23033DAB244
:1015B0001423FB18DA70FB68181C0A2101F0FEF9ED
:1015C0000B1CDBB23033DAB21423FB181A711F2361
:1015D000FB1805221A700FE2FB68724A934261DC25
:1015E000FB68181C704901F003F9031CDBB23033AF
:1015F000DAB21423FB181A70FB68181C684901F052
:10160000F7F8031C181C0A2101F0D8F90B1CDBB2F7
:101610003033DAB21423FB185A70FB68181CFA2313
:10162000990001F0E5F8031C181C0A2101F0C6F925
:101630000B1CDBB23033DAB21423FB189A70FB6850
:10164000181C642101F0D4F8031C181C0A2101F0B5
:10165000B5F90B1CDBB23033DAB21423FB18DA70A5
:10166000FB68181C0A2101F0C3F8031C181C0A218E
:1016700001F0A4F90B1CDBB23033DAB21423FB18EF
:101680001A71FB68181C0A2101F098F90B1CDBB2D7
:101690003033DAB21423FB185A711F23FB180622C9
:1016A0001A70A9E1FB68414A934200DD82E0FB68C1
:1016B000181C3F4901F09CF8031CDBB23033DAB24E
:1016C0001423FB181A70FB68181C374901F090F8B6
:1016D000031C181C0A2101F071F90B1CDBB230331A
:1016E000DAB21423FB185A70FB68181C2C4901F05D
:1016F0007FF8031C181C0A2101F060F90B1CDBB2F7
:101700003033DAB21423FB189A70FB68181CFA23E2
:10171000990001F06DF8031C181C0A2101F04EF924
:101720000B1CDBB23033DAB21423FB18DA70FB681F
:10173000181C642101F05CF8031C181C0A2101F03C
:101740003DF90B1CDBB23033DAB21423FB181A71EB
:10175000FB68181C0A2101F04BF8031C181C0A2115
:1017600001F02CF90B1CDBB23033DAB21423FB1876
:101770005A71FB68181C0A2101F020F90B1CDBB21E
:101780003033DAB21423FB189A711F23FB18072297
:101790001A7031E1E70300000F2700009F86010067
:1017A000102700003F420F00A08601007F9698009E
:1017B00040420F00FB689D4A934200DD83E0FB68D6
:1017C000181C9B4901F014F8031CDBB23033DAB269
:1017D0001423FB181A70FB68181C964901F008F8CE
:1017E000031C181C0A2101F0E9F80B1CDBB2303392
:1017F000DAB21423FB185A70FB68181C8E4900F0EB
:10180000F7FF031C181C0A2101F0D8F80B1CDBB2EF
:101810003033DAB21423FB189A70FB68181C87491E
:1018200000F0E6FF031C181C0A2101F0C7F80B1C8E
:10183000DBB23033DAB21423FB18DA70FB68181C01
:10184000FA23990000F0D4FF031C181C0A2101F0B0
:10185000B5F80B1CDBB23033DAB21423FB181A7163
:10186000FB68181C642100F0C3FF031C181C0A212C
:1018700001F0A4F80B1CDBB23033DAB21423FB18EE
:101880005A71FB68181C0A2100F0B2FF031C181CD7
:101890000A2101F093F80B1CDBB23033DAB21423C7
:1018A000FB189A71FB68181C0A2101F087F80B1CC1
:1018B000DBB23033DAB21423FB18DA711F23FB18C2
:1018C00008221A7098E0FB685D4A934200DD93E0BD
:1018D000FB68181C5B4900F08BFF031CDBB2303344
:1018E000DAB21423FB181A70FB68181C504900F078
:1018F0007FFF031C181C0A2101F060F80B1CDBB2EF
:101900003033DAB21423FB185A70FB68181C4949AB
:1019100000F06EFF031C181C0A2101F04FF80B1C8D
:10192000DBB23033DAB21423FB189A70FB68181C50
:10193000414900F05DFF031C181C0A2101F03EF82C
:101940000B1CDBB23033DAB21423FB18DA70FB68FD
:10195000181C3A4900F04CFF031C181C0A2101F026
:101960002DF80B1CDBB23033DAB21423FB181A71DA
:10197000FB68181CFA23990000F03AFF031C181C9E
:101980000A2101F01BF80B1CDBB23033DAB214234E
:10199000FB185A71FB68181C642100F029FF031C16
:1019A000181C0A2101F00AF80B1CDBB23033DAB242
:1019B0001423FB189A71FB68181C0A2100F018FF09
:1019C000031C181C0A2100F0F9FF0B1CDBB230339A
:1019D000DAB21423FB18DA71FB68181C0A2100F034
:1019E000EDFF0B1CDBB23033DAB21423FB181A7292
:1019F0001F23FB1809221A701423F8180A23FB1856
:101A00000021595E0823FB1800229A5E3023FB1840
:101A10001C783423FB181B780093231CFFF764FC0D
:101A2000031C181CBD4609B090BDC046FFE0F5057B
:101A30008096980040420F00A08601001027000009
:101A4000FFC99A3B00E1F50590B58DB002AFF86093
:101A50000C1C101C191C0A23FB18221C1A800823BA
:101A6000FB18021C1A80FB1D0A1C1A702323FB188A
:101A700000221A70F868002100F0BEFF031E09D092
:101A80002223FB1801221A70FB68802212065340A1
:101A9000FB6003E02223FB1800221A70F86801F0B3
:101AA000F1FD031CFB612223FB181B78002B19D0CE
:101AB000FB6958420A23FB180021595E0823FB18D2
:101AC00000229A5E3823FB181B7800933C23FB18F6
:101AD0001B7801930023FFF74DFC021C2323FB1806
:101AE0001A7017E0F8690A23FB180021595E0823D1
:101AF000FB1800229A5E3823FB181B7800933C23C6
:101B0000FB181B7801930023FFF734FC021C2323EE
:101B1000FB181A70FB1D1B78002B00D1B9E0F86987
:101B200001F0D0FD031CF868191C01F02DFC031C0A
:101B3000BB61FB1D1B78052B3BD89A00584BD31873
:101B40001B689F46B869574901F0ECFA031C181C42
:101B500001F098FD031C7B622BE0B869524901F04B
:101B6000E1FA031C181C01F08DFD031C7B6220E0D0
:101B7000B8694E4901F0D6FA031C181C01F082FD29
:101B8000031C7B6215E0B869494901F0CBFA031CDC
:101B9000181C01F077FD031C7B620AE0B869454917
:101BA00001F0C0FA031C181C01F06CFD031C7B62E1
:101BB000C0462323FB181B789BB219B20823FB18DD
:101BC00000229A5E3823FB181C783C23FB181B78F4
:101BD00000932E20231CFFF7DDFA021C2323FB18A1
:101BE0001A707B6A181C00F087F8021C1723FB1878
:101BF0001A701723FA18FB1D12781B789A422FD2FD
:101C00002123FB1800221A701EE02323FB181B78E7
:101C10009BB219B20823FB1800229A5E3823FB18E6
:101C20001C783C23FB181B7800933020231CFFF703
:101C3000B1FA021C2323FB181A702123FB181A780F
:101C40002123FB1801321A702123FB181A78FB1D7F
:101C500019781723FB181B78CB1A013B9A42D4DB67
:101C60002323FB181B789BB2786A19B20823FB1850
:101C700000229A5E3823FB181B7800933C23FB1844
:101C80001B7801930023FFF775FB021C2323FB182D
:101C90001A702323FB181B78181CBD460BB090BD8F
:101CA000B44A0008000020410000C84200007A4405
:101CB00000401C460050C34780B584B000AF786038
:101CC00039600F23FB1800221A700AE07B687A68DB
:101CD00053437B600F23FB181A780F23FB18013244
:101CE0001A700F23FB181A783B689A42EEDB7B6868
:101CF000181CBD4604B080BD80B584B000AF7860CC
:101D00000023BB607B68002B05DA7B685B427B604D
:101D10000223FB6001E00123FB6005E0BB680133A7
:101D2000BB60FB680133FB60BB680A20191CFFF72E
:101D3000C3FF021E7B689A42F0DBFB68181CBD469D
:101D400004B080BD80B584B000AF786039600023F6
:101D5000FB607B681B68012293431A1C7B681A6036
:101D60007B681B68FB60FB68264A1340FB603B688E
:101D70005A683B689B681B021343FA681343FB6075
:101D80007B68FA681A603B681B681F4A1A407B68C8
:101D90001A617B681B6801221A437B681A60002362
:101DA000FB607B68FA689A607B68FA68DA603B6877
:101DB0009A693B681B691343FB607B68FA689A6009
:101DC0007B689B68802212021A437B689A603B689A
:101DD000DB68FB607B681A68FB681A437B681A60E3
:101DE0007B685B68FB60FB68084A1340FB603B68EC
:101DF0005B69FA681343FB607B68FA685A60BD460A
:101E000004B080BDFFE0CF00FFFFFFF0FF7FFF07C2
:101E100080B582B000AF78600A1CFB1C1A70FB1CF6
:101E20001B78002B06D07B681B6801221A437B6855
:101E30001A6006E07B681B68012293431A1C7B68CA
:101E40001A60BD4602B080BD80B586B000AFF860B4
:101E5000081C111C7B600A23FB18021C1A80092332
:101E6000FB180A1C1A7000237B61FB685B687B61AE
:101E70007B690E4A13407B610A23FB181B889B0574
:101E80009A0D0923FB181B781904FF231B040B4030
:101E90001A437B681A433B6A13437A6913437B6195
:101EA000FB687A695A60BD4606B080BD009800FCA8
:101EB00080B582B000AF78600A1CFB1C1A70FB1C56
:101EC0001A787B689A62BD4602B080BD80B582B048
:101ED00000AF78607B685B6ADBB2181CBD4602B05D
:101EE00080BDC04680B584B000AF78603960002303
:101EF000BB600F23FB1800221A707B689B69BB60D4
:101F0000BB683A681340BB60BB68002B04D00F234A
:101F1000FB1801221A7003E00F23FB1800221A702D
:101F20000F23FB181B78181CBD4604B080BDC046AB
:101F300080B582B000AF786039607B683A68DA615A
:101F4000BD4602B080BDC04680B500AF1B4B1B4AEA
:101F5000126801210A431A60184B184A526818493E
:101F60000A405A60154B154A126816490A401A6011
:101F7000124B124A126814490A401A600F4B0F4A5A
:101F8000526812490A405A600C4B0C4AD26A0F211F
:101F90008A43DA62094B094A126B0D490A401A63F7
:101FA000064B064A526B01218A435A63034B0022B7
:101FB0009A6000F00FF8BD4680BDC0460010024098
:101FC0000CB8FFF8FFFFF6FEFFFFFBFFFFFFC0FFAF
:101FD000ACFEFFFF80B582B000AF00237B60002322
:101FE0003B60314B304A1268802149020A431A6033
:101FF0002D4B1A6880239B0213403B607B680133A2
:102000007B603B68002B04D17A68A023DB019A42F5
:10201000EED1254B1A6880239B02134002D0012386
:102020003B6001E000233B603B68012B38D11F4B34
:1020300011221A601C4B1C4A52685A601A4B1A4AE9
:1020400052685A60184B184A526819490A405A6037
:10205000154B154A5268882149030A435A60124BAE
:10206000114A1268802149040A431A60C0460E4B87
:102070001A6880239B041340F9D00B4B0A4A52681C
:1020800003218A435A60084B074A526802210A43D7
:102090005A60C046044B5B680C221340082BF9D1F0
:1020A000BD4602B080BDC046001002400020024084
:1020B000FFFFC0FF80B586B000AF786039600023B5
:1020C0007B6100233B610023FB6000237B617CE09C
:1020D0007B6901229A40131C3B613B681B683A698B
:1020E0001340FB60FA683B699A426BD13B681B79ED
:1020F000012B03D03B681B79022B34D17B689B6892
:102100007A695200111C03228A40D2431A407B682C
:102110009A607B689A683B685B79191C7B695B00F5
:1021200099400B1C1A437B689A607B689B889BB222
:102130007A6992B2111C01228A4092B2D24392B2C1
:1021400013409AB27B689A807B689B889AB23B68FE
:102150009B79191C7B699BB299400B1C9BB2134362
:102160009AB27B689A807B681B687A695200111C5E
:1021700003228A40D2431A407B681A607B681A683F
:102180003B681B79191C7B695B0099400B1C1A4347
:102190007B681A607B68DB687A6992B2520003211F
:1021A00091400A1CD2431A407B68DA607B68DA6887
:1021B0003B68DB79191C7B695B0099400B1C1A4357
:1021C0007B68DA607B6901337B617B690F2B00D808
:1021D0007EE7BD4606B080BD80B582B000AF7860B6
:1021E0000A1CBB1C1A80BB1C1A887B689A61BD46FE
:1021F00002B080BD80B582B000AF78600A1CBB1C05
:102200001A807B68BA1C12881A85BD4602B080BD50
:1022100080B582B000AF7860081C111CBB1C021C8A
:102220001A807B1C0A1C1A707B1C1B78002B04D0A4
:10223000BB1C1A887B689A6103E07B68BA1C128811
:102240001A85BD4602B080BD80B584B000AF78600D
:10225000081C111CBB1C021C1A807B1C0A1C1A7057
:102260000023FB600023BB607B1C1B78BA1C128818
:1022700007210A4092009340FB60BB1C1B88DB08CF
:102280009BB2181CBB1C1B88DB089BB21A1C7B680A
:1022900008329200D358BA1C128807210A409200D3
:1022A000111C0F228A40D2431A40111C7B68021C69
:1022B00008329200D150BB1C1B88DB089BB21A1C51
:1022C0007B6808329200D258FB681343BB60BB1C8A
:1022D0001B88DB089BB21A1C7B6808329200B96825
:1022E000D150BD4604B080BDF0B54746754B4400A3
:1022F00080B4051C071C64089C420BDDFF23DB0532
:102300009C4200DD72E0002800DC9DE06E4804BCC9
:102310009046F0BD6D4B9C4279DC6D4B9C4269DD73
:1023200001267642291C281C00F0FCFE804641460E
:1023300000F0F8FE6749041C00F0F4FE664900F066
:1023400083FB211C00F0EEFE644900F07DFB211CA4
:1023500000F0E8FE624900F077FB211C00F0E2FE8D
:10236000604900F071FB211C00F0DCFE5E4900F0CA
:102370006BFB414600F0D6FE5C498046201C00F015
:10238000D1FE5B4901F000F8211C00F0CBFE594959
:1023900000F0FAFF211C00F0C5FE574900F0F4FFE1
:1023A000211C00F0BFFE554900F0EEFF211C00F09B
:1023B000B9FE011C731C49D0404600F045FB291CA6
:1023C00000F0B0FE4E4BB600F15800F0DDFF291CC6
:1023D00000F0DAFF4B4B011CF05800F0D5FF002F46
:1023E00095DA80231B069C46604490E7291C00F088
:1023F0002BFB8CE7444900F027FBFE21890500F008
:102400000FFB031C281C002B00D080E788E700F09E
:1024100087F83E4B051C9C4223DC3D4B9C423FDC35
:10242000291C00F011FBFE21890500F0ADFF802181
:10243000041CC905281C00F007FB011C201C00F02F
:102440007FFC0026051C6DE7324860E7404600F03F
:10245000FBFA291C00F066FE011C281C00F094FF0A
:1024600055E72D4B9C4214DCFF21890500F08CFFC1
:10247000FF21041C8905281C00F054FEFE2189055B
:1024800000F0E2FA011C201C00F05AFC0226051C98
:1024900048E7291C214800F053FC0326051C41E7AE
:1024A000FE21890500F070FFFE21041C8905281C0F
:1024B00000F0CAFA011C201C00F042FC0126051C99
:1024C00030E7C046FFFF7F50DB0FC93FFFFFDF3E15
:1024D000FFFFFF30D769853C59DA4B3D356B883DAE
:1024E0006E2EBA3D2549123EABAAAA3E21A215BDC9
:1024F0006BF16E3D95879D3D388EE33DCDCC4C3ED6
:10250000CC4A0008DC4A0008CAF24971FFFF973F35
:10251000FFFF2F3FDB0FC9BFFFFF1B40000080BF45
:10252000400040087047C04670B58CB0051C00F0F4
:1025300051F80023254E041CF35601330AD0281C01
:1025400000F0A6F8002805D0281C002100F054FA5D
:10255000002802D1201C0CB070BD012302931C4B3B
:10256000281C039300230A9301F0C8FF34780690D7
:10257000079104900591002C12D1002200230892AB
:10258000099302A800F082F8002813D00A9B019357
:10259000002B14D10898099902F004F8041CD9E71B
:1025A00000200021021C0B1C01F0D4F808900991B6
:1025B000022CE6D102F0A4F821230360E6E702F042
:1025C0009FF80A9B01930360E4E7C04618000020CF
:1025D000EC4A00082B49420070B5031C041C520849
:1025E0008A423BD8011C002A36D0002840DBC115A6
:1025F000254882420AD80130204240D100225B00A7
:1026000001320342FBD00120821A891880225B022A
:102610005B0A12047F391343CA0727D4802219208A
:102620000025002649105B005204B4189C4202DCCD
:10263000A6181B1BAD1801385B0052080028F4D106
:10264000002B02D001232B405D19FC239B059C46E7
:102650006D106544C9054919081C70BD211C00F0A6
:1026600061FD211C00F0F0F9011CF5E75B00D5E7E6
:1026700000F08AFE011C00F063FB011CECE7012264
:102680008918C3E7FFFF7F7FFFFF7F0000207047AF
:1026900043005B080220002B00D17047084A02303B
:1026A0009918084A9142F8D9074A591E01389142AF
:1026B000F3D9064A9446634458425841EDE7C04670
:1026C000000080FFFFFFFF7EFEFF7F000000808094
:1026D000002243088B4274D303098B425FD3030A61
:1026E0008B4244D3030B8B4228D3030C8B420DD374
:1026F000FF22090212BA030C8B4202D31212090202
:1027000065D0030B8B4219D300E0090AC30B8B423F
:1027100001D3CB03C01A5241830B8B4201D38B03ED
:10272000C01A5241430B8B4201D34B03C01A524192
:10273000030B8B4201D30B03C01A5241C30A8B42D5
:1027400001D3CB02C01A5241830A8B4201D38B02C0
:10275000C01A5241430A8B4201D34B02C01A524164
:10276000030A8B4201D30B02C01A5241CDD2C309D6
:102770008B4201D3CB01C01A524183098B4201D352
:102780008B01C01A524143098B4201D34B01C01A3D
:10279000524103098B4201D30B01C01A5241C308B5
:1027A0008B4201D3CB00C01A524183088B4201D324
:1027B0008B00C01A524143088B4201D34B00C01A10
:1027C0005241411A00D20146524110467047FFE77C
:1027D00001B5002000F0FCF802BDC0460029F7D08A
:1027E00003B5FFF775FF0EBC4243891A1847C04670
:1027F00003460B437FD4002243088B4274D3030962
:102800008B425FD3030A8B4244D3030B8B4228D302
:10281000030C8B420DD3FF22090212BA030C8B4228
:1028200002D31212090265D0030B8B4219D300E0C8
:10283000090AC30B8B4201D3CB03C01A5241830B4D
:102840008B4201D38B03C01A5241430B8B4201D3FD
:102850004B03C01A5241030B8B4201D30B03C01A26
:102860005241C30A8B4201D3CB02C01A5241830AA0
:102870008B4201D38B02C01A5241430A8B4201D3CF
:102880004B02C01A5241030A8B4201D30B02C01AF9
:102890005241CDD2C3098B4201D3CB01C01A524160
:1028A00083098B4201D38B01C01A524143098B42E9
:1028B00001D34B01C01A524103098B4201D30B01D2
:1028C000C01A5241C3088B4201D3CB00C01A5241F7
:1028D00083088B4201D38B00C01A524143088B42BC
:1028E00001D34B00C01A5241411A00D20146524155
:1028F000104670475DE0CA0F00D04942031000D374
:102900004042534000229C4603098B422DD3030AC8
:102910008B4212D3FC22890112BA030A8B420CD3D8
:10292000890192118B4208D3890192118B4204D301
:1029300089013AD0921100E08909C3098B4201D381
:10294000CB01C01A524183098B4201D38B01C01ABB
:10295000524143098B4201D34B01C01A5241030932
:102960008B4201D30B01C01A5241C3088B4201D3E1
:10297000CB00C01A524183088B4201D38B00C01A8E
:102980005241D9D243088B4201D34B00C01A524165
:10299000411A00D20146634652415B10104601D3F2
:1029A0004042002B00D54942704763465B1000D37C
:1029B000404201B5002000F00BF802BD0029F8D01C
:1029C00003B5FFF715FF0EBC4243891A1847C046EE
:1029D0007047C0468446081C6146FFE71FB500F0FB
:1029E0005BFB002801D40021C8421FBD10B500F0D8
:1029F000DFFA4042013010BD10B500F04DFB002859
:102A000001DB002010BD012010BDC04610B500F054
:102A100043FB002801DD002010BD012010BDC04691
:102A200010B500F0EFFA002801DC002010BD0120F5
:102A300010BDC04610B500F0E5FA002801DA00200C
:102A400010BD012010BDC046F8B54A004302440045
:102A50004E02C50F240E281C9B09120EC90FB70980
:102A60008D4240D0A01A002800DC84E0002A1CD14E
:102A7000002F5CD15A0704D00F221A40042A00D03C
:102A800004338022D2041A40281C002A24D00134A6
:102A9000FF2C00D17BE09B015B0AE4B25B02E40502
:102AA0005B0A2343C0071843F8BDFF2CE2D0802205
:102AB000D204174301261B2808DC391C20223E1CA7
:102AC000C140101A8640771EBE410E439B1B5A011F
:102AD00033D4281C5A07CFD1DB08FF2C1ED05B0251
:102AE0005B0AE4B2DAE7A11A002957DD002A3AD0DE
:102AF000FF2CBFD08022D204174301261B2972DD90
:102B00009B195A01E5D50134FF2C00D187E0012142
:102B10008A4A194013405B080B43ABE7002B36D0C1
:102B20008022D20313435B025B0AFF24B6E701381D
:102B300000283FD1DB1B5A01CBD59B019E09301CDD
:102B400001F0C0FD05388640844223DC001B1F24B1
:102B5000321C431C201ADA408640131C741EA64106
:102B60000024334386E7002F00D183E70139002991
:102B700050D1DB19C5E7002820D1621CD2B2012A4E
:102B80005EDDDE1B720128D5FE1A0D1CD7E7FF247F
:102B9000002383E7694B241A33406BE7002958D19F
:102BA000621CD1B201293CDDFF2A37D0FB185B083B
:102BB000141C5FE7FF2C00D07CE75BE7002C1ED0E5
:102BC000FF2A23D08024E404404223431B285BDDFA
:102BD0000123FB1A141C0D1CADE7002EAFD10023FE
:102BE0000020002478E73A1CCA40944620223E1C6C
:102BF000511A8E406246771EBE41164380E7002B75
:102C00003ED0C0430028E4D0FF2ADFD13B1CFF2484
:102C10000D1C2FE7FF2C00D06FE72BE7FF240023CC
:102C20005AE7002C5AD1002B7FD0002F00D121E78A
:102C3000DB195A0100D44CE7404A0134134019E72C
:102C4000002C15D1002B2FD1002F5DD03B1C0D1C6B
:102C500010E7002C21D1002B53D0C943002904D008
:102C6000FF2A4BD01B2957DD0123DB19141C48E731
:102C7000002B22D1002F4AD03B1C0D1CFF24F9E66B
:102C80003B1C141C0D1CF5E61D1C2024C540201AFD
:102C90008340581E83412B439BE7FF2A2ED080247C
:102CA000E40449422343DDE7002F00D1E2E6DA1BCA
:102CB00050013CD5FB1A0D1CDCE6FF24002F00D18F
:102CC000D8E68022DB08D203134204D0FE08164265
:102CD00001D1331C0D1CDB00FF24CBE6002B0DD0F3
:102CE000FF24002F00D1C5E68022DB08D203134267
:102CF000F1D0FE081642EED1331CECE73B1CFF245A
:102D0000B8E63B1C141CB5E6231C0020E4E6802337
:102D100000209B04FF24DFE61E1C2024CE40611A05
:102D20008B40591E8B4133439FE73B1CA2E6131E89
:102D300000D0CEE600230020CEE6C046FFFFFFFB1A
:102D4000F0B556464D465F464446F0B44302450052
:102D5000C70F83B08A465C0A2E0EB94641D0FF2EBB
:102D600026D080231B042343DC00002398469B4687
:102D70007F3E53465B025D0A53465A00DB0F120E3C
:102D80009A4639D0FF2A33D080231B042B43DD0021
:102D900000237F3A5146B21A46467940081C0192F8
:102DA0001E430F2E00D976E07E4AB6009659B746EC
:102DB000002C30D108239846063B9B46D9E7802358
:102DC0000021DB03FF245B02E4055B0AC907234300
:102DD0000B43181C03B03CBC90469946A246AB4638
:102DE000F0BD002C28D104239846033B9B46C0E746
:102DF000002D1FD1022302E0002D11D10123B21AB0
:102E000050464646784001921E430F2E27D8664909
:102E1000B60089598F460C239846093B9B46A8E784
:102E2000281C01F04FFC7622431F52429D40121A8B
:102E30000023AFE70323ADE7201C01F043FC431F51
:102E40009C4076235B421E1A002398469B4690E7DF
:102E50000025D1469B465B464846022B6FD1012197
:102E6000FF2401400023AEE77E23019A5B429B1AB8
:102E70001B2B6DDD01214B46194000240023A2E7E6
:102E80008023DB031C4249D18023DB0323435B0205
:102E90005B0A391C96E763016D01AB4237D3894663
:102EA0001A2001215B1B01241E1C49005B00002E1F
:102EB00001DBAB4201D35B1B214301380028F3D176
:102EC000581E83410B431D1C019C7F34002CCBDD1D
:102ED0006B0704D00F232B40042B00D004352B01AB
:102EE00004D5019A314B8032141C1D40FE2C07DDA5
:102EF0004B460121FF241940002364E7251CAAE763
:102F000001214A46AB015B0AE4B211405BE7019A3A
:102F10008946013A01921B200021C4E71D4207D0D7
:102F200023435B025B0A391C4CE700256302ABD5E7
:102F30008023DB032B435B025B0A514642E7032BF2
:102F400025D0012BC0D101210024014000233AE704
:102F5000291CD9402B1C019A9E3293405D1EAB4127
:102F60000B435A0704D00F221A40042A00D004331E
:102F70005A0105D54B46012101241940002322E7BF
:102F800001214A469B015B0A114000241BE7802374
:102F900001214A46DB032B435B020A405B0A111CFA
:102FA00010E7C046F44A0008344B0008FFFFFFF763
:102FB000430270B542004C005D0AC30F4802120E76
:102FC000460A240EC90FFF2A05D0FF2C08D0012085
:102FD000A2420BD070BD0120002DFBD1FF2CF6D1F9
:102FE0000120002EF6D10120A242F3D1B542F1D149
:102FF0008B4205D0002AEDD1281C431E9841E9E7F9
:103000000020E7E7F0B543024D024A0044005E0AA3
:10301000240EC30F6D0A120EC90FFF2C0DD0FF2A0C
:1030200031D0002C0DD177427741002A23D1002DD9
:1030300021D10020002F0BD107E0002E28D1FF2A3C
:1030400021D0002A05D08B4207D0584201231843D3
:10305000F0BD002DF9D08B42F7D19442F5DC04DBB2
:10306000AE42F2D80020AE42F2D258424341012093
:103070005B421843ECE7002FE5D048424141012074
:1030800049420843E4E7002D02D1002CCBD0DAE717
:1030900002204042DCE7C0464302F0B542004C004B
:1030A0005E0AC30F4802120E450A240EC90FFF2AFA
:1030B0000FD0FF2C1AD0002A10D177427741002C74
:1030C00029D0002F17D048424141012049420843EE
:1030D0000BE00220002E08D1FF2C07D0002C0AD1D3
:1030E000002D08D1584201231843F0BD0220002DC5
:1030F000FBD1002AE1D08B42F4D1A242F2DC04DB06
:10310000AE42EFD80020AE42EFD2584243410120F8
:103110005B421843E9E7002DD3D10020002FE4D112
:10312000E0E7C046F0B55F4656464D464446F0B42B
:1031300045024600C40F83B00F1C6D0A360EA3462D
:1031400045D0FF2E25D080231B041D4300239A4623
:10315000ED007F3E01937B025B0A98467800FB0FEF
:10316000000E994640D0FF2838D0802342461B04E9
:103170001343DB00984600237F384A46019F3018EE
:103180006240411C1F430F2F69D87D4EBF00F65986
:10319000B746002D45D108230193063B9A46DAE74E
:1031A00093465346022B2FD15B46012400251C4039
:1031B000FF236D02DB056D0AE4071D432543281C30
:1031C00003B03CBC90469946A246AB46F0BD002DEC
:1031D0002CD104230193033B9A46BCE743465A4251
:1031E00053410322D31AC8E742460123002AC4D020
:1031F000404601F067FA4246431F9A4076235B42FD
:10320000181A90460023B8E7032B00D1ADE0012B3C
:1032100000D08CE05B4654461C40E4B200230025FD
:10322000C7E70C230193093B9A4694E7281C01F059
:1032300049FA7626431F9D4000237642361A0193B1
:103240009A4688E780250024ED03FF23B1E7454631
:10325000CB469A46A5E7454693469A46A1E743469C
:103260002C041B0C9C46230C444626041C1C360CC8
:103270002F0C7443351C66467D4373437743EB182C
:10328000260C9E19B54203D980235B029C466744F5
:1032900024043304240C1B199D016C1EA5419B0EB4
:1032A000360C2B43BD19AD011D432B0104D5012361
:1032B00068081D400543081C031C7F33002B2CDDD0
:1032C000690704D00F212940042900D004352901C1
:1032D00003D52C4B1D40031C8033FE2B17DD01242E
:1032E000FF231440002564E78020C003054209D075
:1032F0004346034206D1454605436D026D0A4C46DE
:10330000FF2356E705436D026D0AFF2351E70124B1
:10331000AD016D0ADBB214404BE77E235B421B1A02
:103320001B2B07DD012400231440002541E7081C66
:103330005A46C1E79E30291C8540D940681E854108
:103340000D436B0704D00F232B40042B00D0043512
:103350006B0104D5012401231440002529E7012431
:10336000AD016D0A1440002323E78023DB031D43D6
:1033700001245B466D0223401C1C6D0AFF2318E7E5
:10338000744B0008FFFFFFF7F8B54A004302440002
:103390004D02C00F240E061C9B09120EC90FAD0969
:1033A000FF2A00D175E001277940884250D0A01A49
:1033B000002800DC8FE0002A1ED1002D00D075E02F
:1033C0005A0704D00F221A40042A00D00433802266
:1033D0000120D2041A403040002A32D00134FF2CA0
:1033E00000D184E09B015B0AE4B25B02E4055B0A66
:1033F0002343C0071843F8BDFF2CE1D08022D2043C
:1034000015431B287ADD01255B1B5A015DD59B0105
:103410009F09381C01F056F905388740844269DC61
:10342000001B1F243A1C431C201ADA408740131C3F
:103430007C1EA74100243B43C2E7131E45D1002355
:103440000020DB08FF2C28D05B025B0AE4B2CCE74B
:10345000A11A00295BDD002A2ED0FF2CB0D08022DB
:10346000D20415431B2974DC2F1C2022CF40511A93
:103470008D40691E8D413D435B195A0125D50134AC
:10348000FF2C74D001217E4A194013405B080B4386
:1034900096E7002D00D088E785E7002B27D0802213
:1034A000D20313435B025B0AFF249EE70138002826
:1034B000AAD0FF2CA5D183E7002D00D180E70139E8
:1034C0000029D9D0FF2CCDD17AE75A0700D079E76F
:1034D00001203040B5E7002825D1621CD2B2012A74
:1034E00055DD5F1B7A012DD5EF1A0E1C91E7FF24E5
:1034F00000237AE7624B241A3B4061E7291C202213
:10350000C140101A8540681E85410D437CE70029A3
:1035100046D1621CD1B201292BDDFF2A26D0EB183F
:103520005B08141C4CE7002C15D0FF2A1AD080240D
:10353000E404404223431B284DDD0123EB1A141CF5
:103540000E1C62E7002F00D063E700230020002458
:1035500077E7012590E7002B39D0C0430028EDD054
:10356000FF2AE8D12B1CFF240E1C29E7FF2400238F
:1035700067E7002C5AD1002B7FD0002D00D11FE728
:103580005B195A01A1D53E4A0134134018E7002CBB
:1035900015D1002B2FD1002D5ED02B1C0E1C0FE758
:1035A000002C21D1002B54D0C943002904D0FF2A7C
:1035B0004CD01B2958DD01235B19141C5DE7002B3F
:1035C00023D1002D4BD02B1C0E1CFF24F8E62B1C06
:1035D000141C0E1CF4E61E1C2024C640201A834036
:1035E000581E83413343A9E7FF2A2FD08024E404E7
:1035F00049422343DDE7002D00D1E1E65A1B50018B
:1036000000D41AE7EB1A0E1CDAE6FF24002D00D1D5
:10361000D6E68022DB08D203134204D0ED0815421F
:1036200001D12B1C0E1CDB00FF24C9E6002B0DD0A2
:10363000FF24002D00D1C3E68022DB08D203134211
:10364000F1D0ED081542EED12B1CECE72B1CFF242A
:10365000B6E62B1C141CB3E6231C0020F1E68023E5
:1036600000209B04FF24ECE61F1C2024CF40611A9D
:103670008B40591E8B413B439EE72B1CA0E6C04666
:10368000FFFFFFFB4202510A4200C30F120E00204F
:103690007E2A0DDD9D2A0CDC802000040143952A42
:1036A0000ADC9620821AD1400A1C58424240D018A7
:1036B0007047034A9818FBE7963A91400A1CF4E7D2
:1036C000FFFFFF7F70B5041E39D0C50F00D0444204
:1036D000201C00F0F7FF9E23261C1B1A962B07DCEC
:1036E000082801DD083884406402640AD8B21EE06C
:1036F000992B0ADD0522211C121AD1400A1C011C3B
:103700001B318E40711E8E411643052801DD421F7C
:1037100096400F4C3440720704D00F221640042EFE
:1037200000D0043462010ED4A401640AD8B2640249
:10373000C005640AED0704432C43201C70BD00251E
:1037400000200024F3E7024B1C409F231B1AEBE7E9
:10375000FFFFFFFBF0B55F4656464D464446F0B4CA
:103760000F0387B098464D003B0BCC0F061C9246CA
:1037700081469B466D0D01946BD0664B9D4235D0C2
:1037800080275B467F031F43F3009946624BFF008F
:10379000400F9C4607430023BB4600266544009328
:1037A000424617035000D20F53463F0B400D904640
:1037B00000D172E0574A904267D080235B031F43D9
:1037C0005346554A5B0FFF001F4394465346002162
:1037D000DB0060444246624092462D1A0E430F2E93
:1037E00000D9A1E04D48B600805987465B461E438C
:1037F00000D076E000239B469946023308260093CA
:10380000CEE799464346BB4601930091009B022BAD
:103810006BD1019B9A46002153460122002789461D
:103820001A403C4B00213F030C0D24053F0B27435E
:103830003B4C1B0527401F437F00D2077F081743DF
:103840004846391C07B03CBC90469946A246AB4658
:10385000F0BD03433ED05B46002B00D19CE15846AF
:1038600000F030FF2823311C1B1A021C5F46D94090
:10387000083A97400B1C96403B439B46B1460023B9
:10388000284D00262D1A00938AE7524603213A4319
:10389000A0D10027002302219CE752463A4315D0CD
:1038A000002F00D185E1381C00F00CFF021C2821FC
:1038B0005046891A131CC8405146083B99409F4006
:1038C0000B1C074317480021801A83E700270023B9
:1038D00001217FE700239B4699460133042600938C
:1038E0005EE703230C2600935AE7032B00D13CE24A
:1038F000012B00D0BFE11A1C019B1A4000210023BC
:10390000002789468EE700238027994600223F033F
:10391000004B87E7FF07000001FCFFFFB44B0008E6
:10392000FFFF0F800DFCFFFFBB4500D951E100D127
:103930004CE14A46039200225C469046013D180E37
:103940003F0238431B020193030C994603041B0CEE
:103950004946061C201C1F1C0093FEF7B9FE021CE2
:103960007A4302904946201C171CFEF737FF039B41
:1039700009041B0C19438F420CD9029B8919013B86
:103980008E4200D952E18F4200D84FE1029B891943
:10399000023B0293CC1B201C4946FEF799FE009F78
:1039A000834647434946201CFEF718FF039A0B0441
:1039B0001404240C23439F420DD95A469B19013A03
:1039C0009E4200D930E19F4200D82DE102225242AE
:1039D00094469B19E344029ADB1B17045A463A4368
:1039E0009346019C170C220C101C04925A46110499
:1039F0002204120C141C090C7C4305924A434143D7
:103A000047436118100C09188C4203D980204002EA
:103A1000844667440C0C12040804120C3C198118EB
:103A2000A34200D2E5E000D1DFE01F1B43465C1A51
:103A3000A04592415242BF1AB74200D10EE1381C54
:103A40004946FEF745FE009B029043434946381C19
:103A50009846FEF7C3FE230C0F041F43B8450CD94C
:103A6000029BBF19013BBE4200D9FBE0B84500D81C
:103A7000F8E0029BBF19023B02934346FF1A4946F6
:103A8000381CFEF725FE009B039043434946381C33
:103A90009846FEF7A3FE24040904240C214388451C
:103AA0000CD9039B8919013B8E4200D9DCE0884583
:103AB00000D8D9E0039B8919023B03934346C91AF6
:103AC000029B039A1B04059C1A43100C1304914695
:103AD000221C049F1B0C5A4344437B437843E31846
:103AE000170CDB199C4203D980246402A44660446D
:103AF0001C0C12041B04120C00199B18814200D2EA
:103B000096E000D1FCE04A4601231A4391469B4BC4
:103B1000EB18002B00DC99E04A4652070AD00F222E
:103B200049460A40042A05D0043149459241894654
:103B3000524293445A46D20106D55A46904B1A40F7
:103B400080239346DB00EB188E4A934200DD62E649
:103B50004A465946D208490711435A4689465702F0
:103B6000514601225B053F0B5B0D0A405AE680205F
:103B70005A460003024208D0074206D107433F03DA
:103B800099463F0B4246804B4CE65F4607433F0356
:103B90003F0B221C7C4B45E600F094FD031C2030BB
:103BA000272800DC5EE6083B9E400023B34699468A
:103BB00065E6504600F086FD021C2032272A00DC14
:103BC00075E657460838874000237BE6994500D2C2
:103BD000AFE65A46594654084A46C80752080243B7
:103BE00003924A46D2079046A9E60027884500D3AB
:103BF0001CE7019F5A46BC46E044B845BF417F429E
:103C0000BF19FF18013ABE4206D2BC425FD800D1AC
:103C10009FE03F1B934609E7B742FAD1019B43451A
:103C2000F3D9371B934601E79346D4E60293B1E6F6
:103C30004A468919013A8E4218D99146814200D0EC
:103C400061E7019A9A4200D05DE760E74F4F7F1B22
:103C5000382F13DD012253461A404FE601235B4201
:103C6000994654E7029308E7039327E788423CD834
:103C700074D0914647E7019B9A4648E71F2F44DCE2
:103C8000434B4A469C465B466544FA40AB4013436F
:103C90004A46AA40151C6A1E95415A46FA402B43D3
:103CA000171C5A0709D00F221A40042A05D01A1DE2
:103CB0009A429B415B42FF18131C3A023ED5534681
:103CC000012200211A40002701238946AAE5022388
:103CD0005B429C46019AE3449446E04490459B41F4
:103CE0005B429B19DF193F1BA0E6019F4A467C00FF
:103CF000BC42BF417F42BF19023AC91901949CE7F7
:103D0000002B95D1002201929BE75A46214B5B1B69
:103D1000DA40202F27D0204B9C465B466544AB40C1
:103D200049460B43591E8B411343072200271A4073
:103D300007D00F2200271A40042AB8D17A077F0241
:103D40003F0BDB0813439946012253461A400023D8
:103D500068E54145BBD89346002767E6019C9C4235
:103D6000C3D391466DE70023DAE780275B463F0324
:103D70001F433F033F0B019A034B53E5FF03000032
:103D8000FFFFFFFEFE070000FF07000002FCFFFF31
:103D90001E040000E2FBFFFF3E040000F0B54D46AC
:103DA00044465F465646F0B40E1C111C3203520ABC
:103DB000470F1743C5001A035800DB0F9946520AF4
:103DC0004B0F83B01A43CB000193CF4B7400F60F17
:103DD000640DB046400D984200D1E8E00123494609
:103DE00059400B1C9E4200D1B1E0261A002E00DC87
:103DF0001CE1002842D1131C01990B4300D0E6E0DE
:103E00006B0700D18EE00F232B40042B00D189E0FB
:103E10002A1DAA42AD418023012641466D427F19E9
:103E20001B043B400E40151C002B00D183E0B64B19
:103E300001349C4200D116E13A1CB44BED081A4003
:103E40005007640552020543120B640D0021120352
:103E50000B0D1B056405120B1A436308AC4CF607E7
:103E600014401C43640064083443281C211C03B024
:103E70003CBC90469946A246AB46F0BDA24B9C4244
:103E8000BED080231B041A43382E00DD03E11F2E11
:103E900000DD3FE12020831B9946131C49468B40DF
:103EA0009C46019B6046F34003430198F2408840E2
:103EB000011C481E81410B43EB1A9D4280411D1C91
:103EC000BA1A4042171A3B0200D4A8E07A02560AF6
:103ED000002E00D1CAE0301C00F0F4FB031C083BAC
:103EE0001F2B00DDCBE02822291C121AD1409E4056
:103EF0000A1C9D4032439C4200DDC8E01C1B671C2D
:103F00001F2F00DDEDE01F23291C1C1B131CA540E7
:103F1000A340F9406C1EA541FA4019430D43171CFC
:103F200000246DE78023012642461B043B401640D7
:103F3000002B00D07BE7744BED0878070543FA08A7
:103F40009C423BD012036405120B640D7EE7231ADA
:103F50009A46002B00DCA5E0002844D06A48844241
:103F600000D14DE78020000402435346382B00DC8B
:103F70001CE1019B1A43511E8A41D1B2002249190A
:103F8000A94280410D1CD219404217183B0246D568
:103F90005D4B01349C4200D169E101205B4A6B0812
:103FA0003A4028401843D5070543570828E7131C13
:103FB00001990B4300D111E74B4613E72B1C134328
:103FC00051D080231B031A431203120B3EE7013E1C
:103FD000002E00D080E0691A8D429B41BA1A5B42E4
:103FE000D71A0D1C6FE7101C019B184300D107E77F
:103FF00001235B429C46E2445346002B00D002E181
:10400000019BD2195919A9429B415B42D7180D1C3B
:10401000BCE76346034300D128E1071C65466B07F4
:1040200000D0F0E6012643461E4084E7002E00D073
:1040300081E0601C4005400D012800DC07E101998A
:10404000681A84466545B641B81A7642861B300226
:1040500000D4A1E08C464D1BAC458941D21B49429E
:10406000561A984634E700220025EFE6281C00F097
:1040700029FB2030031C083B1F2B00DC33E7021C0C
:10408000283A95402A1C00259C4200DC36E71F4F49
:10409000E41A1740B4E6019B1A43511E8A41D3B279
:1040A000002209E7002B00D001E1601C43055B0DF5
:1040B000012B00DCB0E0144B984200D11EE1019BC3
:1040C000D2195919A9429B415B42D2184908D50718
:1040D0000D435708041C93E60B4B9C4200D0D3E6DB
:1040E0008EE6211C131C1F39CB40191C202F00D138
:1040F0008EE03F231C1BA24015436A1E95410027FA
:104100000D4300248BE7C046FF070000FFFF7FFF41
:10411000FFFF0F80331C101C203BD840202E79D08D
:1041200040239B1B9A40131C019A1343591E8B4139
:1041300000220343C0E6002C53D0C74CA04200D15C
:10414000B0E0802471428946240427434946382937
:1041500000DDCDE01F2900DD59E120243E1C611A5D
:104160008E408A46B04649462E1CCE405146B44643
:104170008D4064464646494626436C1EA541CF40C5
:1041800035430199D71B8C464D1BAC459241524299
:10419000BF1A041C984696E663466546334300D032
:1041A00096E60026002700240025C4E61F2B61DCCC
:1041B0002020C31A9B46131C59468B4051469946F2
:1041C000019BCB409C464B46604603439C465B4666
:1041D000019999406346481E814119435346DA408C
:1041E000CDE63C1C2C435DD0F1438946002955D1D6
:1041F0000199D21B8C464D1BAC4589414942571A47
:10420000041C98465FE69448844200D0ADE6F7E58A
:10421000002271E7002387E73B1C2B43002C00D0D2
:10422000DAE0002B00D113E1131C01990B4300D1FC
:10423000E6E54919A9429B41D2195B42D7183B02D6
:1042400000D421E1854B0D1C1F40041CD8E5381C0F
:104250002843002C40D1002800D083E0101C019995
:10426000084303D0171C0D1C9846C9E500260027FB
:10427000002560E65046131C2038C340181C5346E6
:10428000202B00D1C1E0402351465B1A9A4001998E
:1042900011434A1E91410022014370E66E4CA04238
:1042A00000D053E7171C019D041C9846A8E5002C7C
:1042B00028D13C1C2C4300D18AE0DB439A46002BDA
:1042C00000D082E0019BD2199C4665449D42894101
:1042D00049425718041C59E600285BD1101C01996B
:1042E000084300D1A4E0171C0D1C98465A4C87E5E2
:1042F0003D436F1EBD410027EDB242E7041C00277D
:10430000002518E6544CA04262D0534680245B42FC
:104310009A46240427435346382B00DD8EE01F2B9A
:1043200000DD9DE02024E31A9B463B1C59468B4050
:10433000514699462B1CCB409C464B466446234332
:104340009C465B469D4063466C1EA541CF401D4385
:10435000019BBF189C4665449D4292415242BF1842
:10436000041C13E6101C0199084300D148E5681AA3
:10437000844685428041BE1A4042301A060200D46B
:1043800047E68C464D1BAC458941D21B4942571A22
:10439000984635E5101C0199084334D080247807ED
:1043A000ED08FF0824032843274208D0D6082642F8
:1043B00005D1C90852070A43101C371C9846FF0054
:1043C000420F1743C500244C1AE5234CA042A2D14A
:1043D000171C019D041C13E5002B35D0131C0199FB
:1043E0000B4310D080247807ED08FF0824032843EE
:1043F0002742E4D0D3082342E1D1C90852070A4337
:10440000101C1F1CDBE7144CFAE400223FE74C466B
:104410003E1C203CE6404946341C202932D0402630
:10442000761AB7403D436F1EBD4100272543A8E6DD
:1044300080270026FF03084C00257CE53D436F1EC6
:10444000BD410027EDB283E7171C019D024CD7E464
:10445000171C019DD4E4C046FF070000FFFF7FFF4B
:1044600054463B1C203CE3401C1C5346202B0DD0E3
:10447000402351465B1A9F403D436F1EBD410027BC
:10448000254365E70027CDE70D1CC8E50027F3E7C6
:104490000B0330B5134C1A0B4B00051C5B0DC90FF9
:1044A0000020A34210DD104883420EDC80200F4C18
:1044B00040030243E41A1F2C0ADD0D48C31ADA40F8
:1044C000131C48424340581830BD0A4BC818FBE73C
:1044D000281CE040084CA44663449A40131C034344
:1044E000EFE7C046FE0300001D0400003304000097
:1044F00013040000FFFFFF7FEDFBFFFF4200120EE1
:10450000511C38B5C9B243025D0AC40F012915DD3B
:10451000E02189008C466D071B0B62440021281C9A
:104520000D0D2D052B431C4D52052B4052081343F6
:104530005B00E4075B082343191C38BD002A15D132
:10454000002D1FD0281C00F0BDF80A281DDC0B230D
:104550002A1C1B1ADA40131C021C153295400F4A04
:104560001B03121A52051B0B520DD7E7002D06D064
:1045700080221B0B120313436D07094ACEE7084A3A
:104580000023CBE700220023C8E7031C0B3B9D4020
:104590002B1C0025E3E7C046FFFF0F8089030000C6
:1045A000FF07000070B50B034D00440F6D0D5B0A53
:1045B00023436C1C6405C90FC200640D012C2ADD65
:1045C0003B4C2C19FE2C1ADC002C35DD8001451EDD
:1045D000A841DB000343520F13435A0704D00F22B4
:1045E0001A40042A00D004338022D2041A4027D073
:1045F0000134FF2C03D09B015B0AE4B201E0FF24ED
:1046000000235B02E4055B0A23435B00C9075B08E8
:104610000B43181C70BD002D06D113430ED100248E
:104620005B025B0AE4B2ECE71A43E8D08020DB00CF
:1046300080040343FF24D0E717340CDA0523002459
:10464000DB08FF2CECD1002B2DD08022D2031343AA
:104650005B025B0AD5E78024164824042343401BF1
:104660001F280DDC144CA4466544AB401C1C131CD5
:10467000AB405D1EAB41C240234313430024ACE773
:104680001E1C0E4C641BE640341C20280DD00C4828
:1046900084466544AB401D1C2A43531E9A41131C9B
:1046A0002343002499E70023ABE70025F4E7C04645
:1046B00080FCFFFF9E03000082FCFFFF7E030000E2
:1046C000A2FCFFFF1C2101231B04984201D3000C14
:1046D00010391B0A984201D3000A08391B09984275
:1046E00001D30009043902A2105C40187047C0468B
:1046F00004030202010101010000000000000000AB
:10470000014B18687047C0464804002070B5830705
:104710003FD0541E002A3BD0CEB2031C032503E039
:10472000621E002C34D0141C01335A1E16702B420A
:10473000F6D1032C24D9FF250D402A0215432A0463
:1047400015430F2C11D9261C103E360901363601AF
:104750001A1C9B19156055609560D5601032934204
:10476000F8D10F221440032C0AD9261FB6080136AF
:10477000B6001A1C9B1920C29342FCD1032214409C
:10478000002C05D0C9B21C1919700133A342FBD10A
:1047900070BD141C031CCCE7583A2000593A200085
:1047A0005A3A20004E6F726D583A20004E6F726D6B
:1047B000593A20004E6F726D5A3A20004D61673AA7
:1047C00020000000416E673A200000000000000059
:1047D0000000005F00000007000700147F147F1432
:1047E000242A7F2A12231308646236495522500076
:1047F00005030000001C2241000041221C00140897
:104800003E081408083E0808005030000008080858
:104810000808006060000020100804023E5149456D
:104820003E00427F400042615149462141454B31A3
:104830001814127F1027454545393C4A4949300133
:10484000710905033649494936064949291E00368A
:1048500036000000563600000814224100141414DB
:104860001414004122140802015109063249794109
:104870003E7E1111117E7F494949363E4141412218
:104880007F4141221C7F494949417F090909013E75
:104890004149497A7F0808087F00417F4100204054
:1048A000413F017F081422417F404040407F020C7D
:1048B000027F7F0408107F3E4141413E7F09090984
:1048C000063E4151215E7F09192946464949493131
:1048D00001017F01013F4040403F1F2040201F3F1A
:1048E0004038403F6314081463070870080761519B
:1048F000494543007F414100020408102000414126
:104900007F000402010204404040404000010204D4
:104910000020545454787F48444438384444442058
:10492000384444487F3854545418087E0901020C16
:104930005252523E7F0804047800447D40002040DB
:10494000443D007F1028440000417F40007C041853
:1049500004787C0804047838444444387C141414E3
:1049600008081414187C7C08040408485454542083
:10497000043F4440203C4040207C1C2040201C3C04
:104980004030403C44281028440C5050503C446473
:10499000544C44000836410000007F0000004136BE
:1049A000080010080810087846414678FF0000000B
:1049B00000000000000306090C101316191C1F222A
:1049C00025282B2E313336393C3F414447494C4E44
:1049D000515355585A5C5E60626466686A6B6D6FCD
:1049E00070717374757678797A7A7B7C7D7D7E7E42
:1049F0007E7F7F7F7F7F7F7F7E7E7E7D7D7C7B7ADB
:104A00007A79787675747371706F6D6B6A686664A5
:104A100062605E5C5A585553514E4C494744413F81
:104A20003C393633312E2B2825221F1C1916131022
:104A30000C09060300FDFAF7F4F0EDEAE7E4E1DE25
:104A4000DBD8D5D2CFCDCAC7C4C1BFBCB9B7B4B209
:104A5000AFADABA8A6A4A2A09E9C9A989695939160
:104A6000908F8D8C8B8A88878686858483838282CB
:104A70008281818181818181828282838384858612
:104A80008687888A8B8C8D8F9091939596989A9C27
:104A90009EA0A2A4A6A8ABADAFB2B4B7B9BCBFC12B
:104AA000C4C7CACDCFD2D5D8DBDEE1E4E7EAEDF06A
:104AB000F4F7FAFDB21B0008441B00085A1B00085B
:104AC000701B0008861B00089C1B00086937AC316E
:104AD00068212233B40F14336821A2333863ED3ECA
:104AE000DA0F493F5E987B3FDA0FC93F73717274EA
:104AF00066000000962E00085E2E00087A2E000840
:104B0000522E00087A2E0008BE2D00087A2E0008CA
:104B1000522E00085E2E00085E2E0008BE2D0008F2
:104B2000522E0008FC2E0008FC2E0008FC2E000867
:104B3000802E00085E2E00085E2E0008462F00081A
:104B4000502E0008462F0008BE2D0008462F0008F2
:104B5000502E00085E2E00085E2E0008BE2D0008B4
:104B6000502E0008FC2E0008FC2E0008FC2E000829
:104B70002A2F00085E32000856320008563200081C
:104B80004E320008A0310008A0310008443200086D
:104B90004E320008A031000844320008A03100085D
:104BA0004E320008A2310008A2310008A2310008EC
:104BB000E83200082839000816380008FC380008D8
:104BC00002380008FC38000806390008FC380008E4
:104BD00002380008163800081638000806390008A0
:104BE000023800080C3800080C3800080C3800089F
:084BF0006E3B000843000000C9
:104BF80001000000006CDC02000000000000000062
:104C08000102030406070809010000000000000073
:104C1800000000000C03002074030020DC030020C7
:104C2800000000000000000000000000000000007C
:104C3800000000000000000000000000000000006C
:104C480000000000F44B0008000000000000000015
:104C5800000000000000000000000000000000004C
:104C6800000000000000000000000000000000003C
:104C7800000000000000000000000000000000002C
:104C8800000000000000000000000000000000001C
:104C9800000000000000000000000000000000000C
:104CA80000000000000000000000000000000000FC
:104CB80000000000000000000100000000000000EB
:104CC8000E33CDAB34126DE6ECDE05000B000000B0
:104CD80000000000000000000000000000000000CC
:104CE80000000000000000000000000000000000BC
:104CF80000000000000000000000000000000000AC
:104D0800000000000000000000000000000000009B
:0C5038000000000000000000200000202C
:0400000508000000EF
:00000001FF
